{
  "contractName": "LendingAgreement",
  "abi": [
    {
      "inputs": [
        {
          "name": "_lender",
          "type": "address"
        },
        {
          "name": "_borrower",
          "type": "address"
        },
        {
          "name": "_cT",
          "type": "address"
        },
        {
          "name": "_bT",
          "type": "address"
        },
        {
          "name": "_collateralAmount",
          "type": "uint256"
        },
        {
          "name": "_amount",
          "type": "uint256"
        },
        {
          "name": "_paybackTime",
          "type": "uint256"
        },
        {
          "name": "_interest",
          "type": "uint256"
        },
        {
          "name": "_incentivization",
          "type": "uint256"
        }
      ],
      "payable": false,
      "stateMutability": "nonpayable",
      "type": "constructor"
    },
    {
      "constant": false,
      "inputs": [
        {
          "name": "_lender",
          "type": "address"
        }
      ],
      "name": "changeLender",
      "outputs": [],
      "payable": false,
      "stateMutability": "nonpayable",
      "type": "function"
    },
    {
      "constant": false,
      "inputs": [
        {
          "name": "_borrower",
          "type": "address"
        }
      ],
      "name": "changeBorrower",
      "outputs": [],
      "payable": false,
      "stateMutability": "nonpayable",
      "type": "function"
    },
    {
      "constant": false,
      "inputs": [],
      "name": "liquidate",
      "outputs": [],
      "payable": false,
      "stateMutability": "nonpayable",
      "type": "function"
    }
  ],
  "bytecode": "0x6060604052341561000f57600080fd5b604051610120806102db8339810160405280805190602001909190805190602001909190805190602001909190805190602001909190805190602001909190805190602001909190805190602001909190805190602001909190805190602001909190505050505050505050505061024f8061008c6000396000f300606060405260043610610057576000357c0100000000000000000000000000000000000000000000000000000000900463ffffffff16806328a070251461005c57806357f7d74f1461007157806371dbc900146100aa575b600080fd5b341561006757600080fd5b61006f6100e3565b005b341561007c57600080fd5b6100a8600480803573ffffffffffffffffffffffffffffffffffffffff169060200190919050506100e5565b005b34156100b557600080fd5b6100e1600480803573ffffffffffffffffffffffffffffffffffffffff16906020019091905050610183565b005b565b6000809054906101000a900473ffffffffffffffffffffffffffffffffffffffff1673ffffffffffffffffffffffffffffffffffffffff163373ffffffffffffffffffffffffffffffffffffffff1614151561014057600080fd5b806000806101000a81548173ffffffffffffffffffffffffffffffffffffffff021916908373ffffffffffffffffffffffffffffffffffffffff16021790555050565b600160009054906101000a900473ffffffffffffffffffffffffffffffffffffffff1673ffffffffffffffffffffffffffffffffffffffff163373ffffffffffffffffffffffffffffffffffffffff161415156101df57600080fd5b80600160006101000a81548173ffffffffffffffffffffffffffffffffffffffff021916908373ffffffffffffffffffffffffffffffffffffffff160217905550505600a165627a7a723058201f6bd49435080961497d3f874bcfdf73557ef5f415e20095aa4c2461d6c91b140029",
  "source": "pragma solidity ^0.4.19;\n\ncontract LendingAgreement {\n\n    address lender;\n    address borrower;\n\n    uint paybackTime;\n\n    // > Constructor\n    function LendingAgreement(\n        address _lender,\n        address _borrower,\n        address _cT,\n        address _bT,\n        uint _collateralAmount,\n        uint _amount,\n        uint _paybackTime,\n        uint _interest,\n        uint _incentivization\n    )\n        public\n    {\n\n    }\n\n    function changeLender(\n        address _lender\n    )\n        public\n    {\n        require(msg.sender == lender);\n        lender = _lender;\n    }\n\n    function changeBorrower(\n        address _borrower\n    )\n        public\n    {\n        require(msg.sender == borrower);\n        borrower = _borrower;\n    }\n\n    function liquidate(\n\n    )\n        public\n    {\n        if (now > paybackTime) {\n        }\n        // } else if () {\n\n        // }\n    }\n}",
  "sourcePath": "/Users/dteiml/bc/dtl/contracts/LendingAgreement.sol",
  "compiler": {
    "name": "solc",
    "version": "0.4.19+commit.c4cbbb05.Emscripten.clang"
  },
  "schemaVersion": "1.0.1",
  "updatedAt": "2018-02-15T15:23:27.457Z"
}