{
  "contractName": "RequestRegistry",
  "abi": [
    {
      "constant": true,
      "inputs": [
        {
          "name": "",
          "type": "address"
        },
        {
          "name": "",
          "type": "uint256"
        }
      ],
      "name": "borrowRequests",
      "outputs": [
        {
          "name": "borrower",
          "type": "address"
        },
        {
          "name": "cT",
          "type": "address"
        },
        {
          "name": "bT",
          "type": "address"
        },
        {
          "name": "collateralAmount",
          "type": "uint256"
        },
        {
          "name": "amount",
          "type": "uint256"
        },
        {
          "name": "paybackTime",
          "type": "uint256"
        },
        {
          "name": "interest",
          "type": "uint256"
        }
      ],
      "payable": false,
      "stateMutability": "view",
      "type": "function"
    },
    {
      "constant": true,
      "inputs": [
        {
          "name": "",
          "type": "address"
        }
      ],
      "name": "latestIndices",
      "outputs": [
        {
          "name": "",
          "type": "uint256"
        }
      ],
      "payable": false,
      "stateMutability": "view",
      "type": "function"
    },
    {
      "constant": false,
      "inputs": [
        {
          "name": "_dutchExchange",
          "type": "address"
        }
      ],
      "name": "setupRequestRegistry",
      "outputs": [],
      "payable": false,
      "stateMutability": "nonpayable",
      "type": "function"
    },
    {
      "constant": false,
      "inputs": [
        {
          "name": "cT",
          "type": "address"
        },
        {
          "name": "bT",
          "type": "address"
        },
        {
          "name": "amount",
          "type": "uint256"
        },
        {
          "name": "paybackTime",
          "type": "uint256"
        },
        {
          "name": "interest",
          "type": "uint256"
        }
      ],
      "name": "postBorrowRequest",
      "outputs": [],
      "payable": false,
      "stateMutability": "nonpayable",
      "type": "function"
    },
    {
      "constant": false,
      "inputs": [
        {
          "name": "bT",
          "type": "address"
        },
        {
          "name": "index",
          "type": "uint256"
        },
        {
          "name": "amount",
          "type": "uint256"
        },
        {
          "name": "paybackTime",
          "type": "uint256"
        },
        {
          "name": "",
          "type": "uint256"
        }
      ],
      "name": "updateCollateral",
      "outputs": [],
      "payable": false,
      "stateMutability": "nonpayable",
      "type": "function"
    },
    {
      "constant": false,
      "inputs": [
        {
          "name": "bT",
          "type": "address"
        },
        {
          "name": "index",
          "type": "uint256"
        }
      ],
      "name": "cancelBorrowRequest",
      "outputs": [],
      "payable": false,
      "stateMutability": "nonpayable",
      "type": "function"
    },
    {
      "constant": false,
      "inputs": [
        {
          "name": "bT",
          "type": "address"
        },
        {
          "name": "index",
          "type": "uint256"
        },
        {
          "name": "incentivization",
          "type": "uint256"
        }
      ],
      "name": "createAgreement",
      "outputs": [],
      "payable": false,
      "stateMutability": "nonpayable",
      "type": "function"
    }
  ],
  "bytecode": "0x6060604052341561000f57600080fd5b61145b8061001e6000396000f300606060405260043610610083576000357c0100000000000000000000000000000000000000000000000000000000900463ffffffff16806302c621b1146100885780630ca8f44a146100e5578063235f0b36146101e95780634cc196551461022b5780638cb7fa7a1461027657806394165cc0146102af578063b8ba36a214610322575b600080fd5b341561009357600080fd5b6100e3600480803573ffffffffffffffffffffffffffffffffffffffff1690602001909190803590602001909190803590602001909190803590602001909190803590602001909190505061036f565b005b34156100f057600080fd5b610125600480803573ffffffffffffffffffffffffffffffffffffffff16906020019091908035906020019091905050610376565b604051808873ffffffffffffffffffffffffffffffffffffffff1673ffffffffffffffffffffffffffffffffffffffff1681526020018773ffffffffffffffffffffffffffffffffffffffff1673ffffffffffffffffffffffffffffffffffffffff1681526020018673ffffffffffffffffffffffffffffffffffffffff1673ffffffffffffffffffffffffffffffffffffffff16815260200185815260200184815260200183815260200182815260200197505050505050505060405180910390f35b34156101f457600080fd5b610229600480803573ffffffffffffffffffffffffffffffffffffffff16906020019091908035906020019091905050610425565b005b341561023657600080fd5b610274600480803573ffffffffffffffffffffffffffffffffffffffff169060200190919080359060200190919080359060200190919050506105c4565b005b341561028157600080fd5b6102ad600480803573ffffffffffffffffffffffffffffffffffffffff16906020019091905050610a70565b005b34156102ba57600080fd5b610320600480803573ffffffffffffffffffffffffffffffffffffffff1690602001909190803573ffffffffffffffffffffffffffffffffffffffff16906020019091908035906020019091908035906020019091908035906020019091905050610ae9565b005b341561032d57600080fd5b610359600480803573ffffffffffffffffffffffffffffffffffffffff169060200190919050506110ac565b6040518082815260200191505060405180910390f35b5050505050565b6001602052816000526040600020602052806000526040600020600091509150508060000160009054906101000a900473ffffffffffffffffffffffffffffffffffffffff16908060010160009054906101000a900473ffffffffffffffffffffffffffffffffffffffff16908060020160009054906101000a900473ffffffffffffffffffffffffffffffffffffffff16908060030154908060040154908060050154908060060154905087565b6000600160008473ffffffffffffffffffffffffffffffffffffffff1673ffffffffffffffffffffffffffffffffffffffff168152602001908152602001600020600083815260200190815260200160002060000160009054906101000a900473ffffffffffffffffffffffffffffffffffffffff1690508073ffffffffffffffffffffffffffffffffffffffff163373ffffffffffffffffffffffffffffffffffffffff161415156104d757600080fd5b600160008473ffffffffffffffffffffffffffffffffffffffff1673ffffffffffffffffffffffffffffffffffffffff1681526020019081526020016000206000838152602001908152602001600020600080820160006101000a81549073ffffffffffffffffffffffffffffffffffffffff02191690556001820160006101000a81549073ffffffffffffffffffffffffffffffffffffffff02191690556002820160006101000a81549073ffffffffffffffffffffffffffffffffffffffff021916905560038201600090556004820160009055600582016000905560068201600090555050505050565b6105cc6110c4565b6000600160008673ffffffffffffffffffffffffffffffffffffffff1673ffffffffffffffffffffffffffffffffffffffff168152602001908152602001600020600085815260200190815260200160002060e060405190810160405290816000820160009054906101000a900473ffffffffffffffffffffffffffffffffffffffff1673ffffffffffffffffffffffffffffffffffffffff1673ffffffffffffffffffffffffffffffffffffffff1681526020016001820160009054906101000a900473ffffffffffffffffffffffffffffffffffffffff1673ffffffffffffffffffffffffffffffffffffffff1673ffffffffffffffffffffffffffffffffffffffff1681526020016002820160009054906101000a900473ffffffffffffffffffffffffffffffffffffffff1673ffffffffffffffffffffffffffffffffffffffff1673ffffffffffffffffffffffffffffffffffffffff16815260200160038201548152602001600482015481526020016005820154815260200160068201548152505091508473ffffffffffffffffffffffffffffffffffffffff166323b872dd33846000015185608001516000604051602001526040518463ffffffff167c0100000000000000000000000000000000000000000000000000000000028152600401808473ffffffffffffffffffffffffffffffffffffffff1673ffffffffffffffffffffffffffffffffffffffff1681526020018373ffffffffffffffffffffffffffffffffffffffff1673ffffffffffffffffffffffffffffffffffffffff1681526020018281526020019350505050602060405180830381600087803b151561083d57600080fd5b6102c65a03f1151561084e57600080fd5b50505060405180519050151561086357600080fd5b33826000015183602001518460400151856060015186608001518760a001518860c001518a610890611144565b808a73ffffffffffffffffffffffffffffffffffffffff1673ffffffffffffffffffffffffffffffffffffffff1681526020018973ffffffffffffffffffffffffffffffffffffffff1673ffffffffffffffffffffffffffffffffffffffff1681526020018873ffffffffffffffffffffffffffffffffffffffff1673ffffffffffffffffffffffffffffffffffffffff1681526020018773ffffffffffffffffffffffffffffffffffffffff1673ffffffffffffffffffffffffffffffffffffffff1681526020018681526020018581526020018481526020018381526020018281526020019950505050505050505050604051809103906000f080151561099857600080fd5b9050816020015173ffffffffffffffffffffffffffffffffffffffff1663a9059cbb8284606001516000604051602001526040518363ffffffff167c0100000000000000000000000000000000000000000000000000000000028152600401808373ffffffffffffffffffffffffffffffffffffffff1673ffffffffffffffffffffffffffffffffffffffff16815260200182815260200192505050602060405180830381600087803b1515610a4d57600080fd5b6102c65a03f11515610a5e57600080fd5b50505060405180519050505050505050565b6000809054906101000a900460ff16151515610a8b57600080fd5b80600060016101000a81548173ffffffffffffffffffffffffffffffffffffffff021916908373ffffffffffffffffffffffffffffffffffffffff16021790555060016000806101000a81548160ff02191690831515021790555050565b60008060008060008060019054906101000a900473ffffffffffffffffffffffffffffffffffffffff1673ffffffffffffffffffffffffffffffffffffffff166314584a9d8b8b6000604051602001526040518363ffffffff167c0100000000000000000000000000000000000000000000000000000000028152600401808373ffffffffffffffffffffffffffffffffffffffff1673ffffffffffffffffffffffffffffffffffffffff1681526020018273ffffffffffffffffffffffffffffffffffffffff1673ffffffffffffffffffffffffffffffffffffffff16815260200192505050602060405180830381600087803b1515610be957600080fd5b6102c65a03f11515610bfa57600080fd5b505050604051805190509450600060019054906101000a900473ffffffffffffffffffffffffffffffffffffffff1673ffffffffffffffffffffffffffffffffffffffff1663d0a89f718a8c886000604051604001526040518463ffffffff167c0100000000000000000000000000000000000000000000000000000000028152600401808473ffffffffffffffffffffffffffffffffffffffff1673ffffffffffffffffffffffffffffffffffffffff1681526020018373ffffffffffffffffffffffffffffffffffffffff1673ffffffffffffffffffffffffffffffffffffffff16815260200182815260200193505050506040805180830381600087803b1515610d0657600080fd5b6102c65a03f11515610d1757600080fd5b505050604051805190602001805190508094508195505050828460048a0202811515610d3f57fe5b0491508973ffffffffffffffffffffffffffffffffffffffff166323b872dd3330856000604051602001526040518463ffffffff167c0100000000000000000000000000000000000000000000000000000000028152600401808473ffffffffffffffffffffffffffffffffffffffff1673ffffffffffffffffffffffffffffffffffffffff1681526020018373ffffffffffffffffffffffffffffffffffffffff1673ffffffffffffffffffffffffffffffffffffffff1681526020018281526020019350505050602060405180830381600087803b1515610e2157600080fd5b6102c65a03f11515610e3257600080fd5b505050604051805190501515610e4757600080fd5b600260008a73ffffffffffffffffffffffffffffffffffffffff1673ffffffffffffffffffffffffffffffffffffffff16815260200190815260200160002054905060e0604051908101604052803373ffffffffffffffffffffffffffffffffffffffff1681526020018b73ffffffffffffffffffffffffffffffffffffffff1681526020018a73ffffffffffffffffffffffffffffffffffffffff16815260200183815260200189815260200188815260200187815250600160008b73ffffffffffffffffffffffffffffffffffffffff1673ffffffffffffffffffffffffffffffffffffffff168152602001908152602001600020600060018401815260200190815260200160002060008201518160000160006101000a81548173ffffffffffffffffffffffffffffffffffffffff021916908373ffffffffffffffffffffffffffffffffffffffff16021790555060208201518160010160006101000a81548173ffffffffffffffffffffffffffffffffffffffff021916908373ffffffffffffffffffffffffffffffffffffffff16021790555060408201518160020160006101000a81548173ffffffffffffffffffffffffffffffffffffffff021916908373ffffffffffffffffffffffffffffffffffffffff160217905550606082015181600301556080820151816004015560a0820151816005015560c082015181600601559050506001600260008b73ffffffffffffffffffffffffffffffffffffffff1673ffffffffffffffffffffffffffffffffffffffff1681526020019081526020016000206000828254019250508190555050505050505050505050565b60026020528060005260406000206000915090505481565b60e060405190810160405280600073ffffffffffffffffffffffffffffffffffffffff168152602001600073ffffffffffffffffffffffffffffffffffffffff168152602001600073ffffffffffffffffffffffffffffffffffffffff168152602001600081526020016000815260200160008152602001600081525090565b6040516102db806111558339019056006060604052341561000f57600080fd5b604051610120806102db8339810160405280805190602001909190805190602001909190805190602001909190805190602001909190805190602001909190805190602001909190805190602001909190805190602001909190805190602001909190505050505050505050505061024f8061008c6000396000f300606060405260043610610057576000357c0100000000000000000000000000000000000000000000000000000000900463ffffffff16806328a070251461005c57806357f7d74f1461007157806371dbc900146100aa575b600080fd5b341561006757600080fd5b61006f6100e3565b005b341561007c57600080fd5b6100a8600480803573ffffffffffffffffffffffffffffffffffffffff169060200190919050506100e5565b005b34156100b557600080fd5b6100e1600480803573ffffffffffffffffffffffffffffffffffffffff16906020019091905050610183565b005b565b6000809054906101000a900473ffffffffffffffffffffffffffffffffffffffff1673ffffffffffffffffffffffffffffffffffffffff163373ffffffffffffffffffffffffffffffffffffffff1614151561014057600080fd5b806000806101000a81548173ffffffffffffffffffffffffffffffffffffffff021916908373ffffffffffffffffffffffffffffffffffffffff16021790555050565b600160009054906101000a900473ffffffffffffffffffffffffffffffffffffffff1673ffffffffffffffffffffffffffffffffffffffff163373ffffffffffffffffffffffffffffffffffffffff161415156101df57600080fd5b80600160006101000a81548173ffffffffffffffffffffffffffffffffffffffff021916908373ffffffffffffffffffffffffffffffffffffffff160217905550505600a165627a7a723058201f6bd49435080961497d3f874bcfdf73557ef5f415e20095aa4c2461d6c91b140029a165627a7a723058209095d4ea9a19dea0589876a68184865bfc058cd333fcd8c3ac523eac6c83d4ab0029",
  "source": "pragma solidity ^0.4.19;\n\nimport \"./ERC20Interface.sol\";\nimport \"./DutchExchangeInterface.sol\";\nimport \"./LendingAgreement.sol\";\n\ncontract RequestRegistry {\n\n    uint constant REQUEST_COLLATERAL = 4;\n    uint constant AGREEMENT_COLLATERAL = 3;\n\n    struct borrowRequest {\n        address borrower;\n        address cT;\n        address bT;\n        uint collateralAmount;\n        uint amount;\n        uint paybackTime;\n        uint interest;\n    }\n\n    struct fraction {\n        uint num;\n        uint den;\n    }\n\n    bool isInitialised;\n    address dutchExchange;\n\n    // token => index => request\n    mapping (address => mapping (uint => borrowRequest)) public borrowRequests;\n    // token => latestIndex\n    mapping (address => uint) public latestIndices;\n\n    function setupRequestRegistry(\n        address _dutchExchange\n    )\n        public\n    {\n        require(!isInitialised);\n\n        dutchExchange = _dutchExchange;\n\n        isInitialised = true;\n    }\n\n\n    // For the purposes of this contract:\n    // cT = collateral token\n\n    /// @dev post a new borrow request\n    /// @param cT - \n    function postBorrowRequest(\n        address cT,\n        address bT,\n        uint amount,\n        uint paybackTime,\n        uint interest\n    )\n        public\n    {\n        // latestAuctionIndex | 10^5\n        uint lAI = DutchExchangeInterface(dutchExchange).getAuctionIndex(cT, bT);\n        // 10^35\n\n        uint num;\n        uint den;\n        (num, den) = DutchExchangeInterface(dutchExchange).computeRatioOfHistoricalPriceOracles(bT, cT, lAI);\n\n        // uint collateralAmount = amount * 2 * bTPrice / cTPrice;\n        uint collateralAmount = amount * REQUEST_COLLATERAL * num / den;\n\n        // Transfer collateral\n        require(ERC20Interface(cT).transferFrom(msg.sender, this, collateralAmount));\n\n        uint latestIndex = latestIndices[bT];\n\n        // Create borrow request\n        borrowRequests[bT][latestIndex + 1] = borrowRequest(\n            msg.sender,\n            cT,\n            bT,\n            collateralAmount,\n            amount,\n            paybackTime,\n            interest\n        );\n\n        // Increment latest index\n        latestIndices[bT] += 1;\n    }\n\n    function updateCollateral(\n        address bT,\n        uint index,\n        uint amount,\n        uint paybackTime,\n        uint \n    )\n        public\n    {\n\n    }\n\n    function cancelBorrowRequest(\n        address bT,\n        uint index\n    )\n        public\n    {\n        address borrower = borrowRequests[bT][index].borrower;\n        require(msg.sender == borrower);\n        delete borrowRequests[bT][index];\n    }\n\n    function createAgreement(\n        address bT,\n        uint index,\n        uint incentivization\n    )\n        public\n    {\n        borrowRequest memory request = borrowRequests[bT][index];\n\n\n\n        require(ERC20Interface(bT).transferFrom(msg.sender, request.borrower, request.amount));\n\n        address agreement = new LendingAgreement(\n            msg.sender,\n            request.borrower,\n            request.cT,\n            request.bT,\n            request.collateralAmount,\n            request.amount,\n            request.paybackTime,\n            request.interest,\n            incentivization\n        );\n\n        ERC20Interface(request.cT).transfer(agreement, request.collateralAmount);\n    }\n}",
  "sourcePath": "/Users/dteiml/bc/dtl/contracts/RequestRegistry.sol",
  "compiler": {
    "name": "solc",
    "version": "0.4.19+commit.c4cbbb05.Emscripten.clang"
  },
  "schemaVersion": "1.0.1",
  "updatedAt": "2018-02-15T15:23:27.457Z"
}